:040000008A11F92F39
:1000080083120313A3002308A200A20EA20DA20DBF
:100018001F0822063F3922069F0029308312031346
:10002800A200A20B1528831203131F151F191D28E0
:100038001E281A281E08A100831603131E088312FF
:100048000313A00008008A150F218A118A15302190
:100058008A1183120313851200308A1104208A1131
:1000680083120313210883160313D8008312031382
:10007800200883160313D7003B3083120313CA00EA
:10008800A030C9002830C8000A30C70083160313FF
:10009800570883120313A00083160313580883120A
:1000A8000313A100A201A30100308A15E3238A11DA
:1000B800831203132308CE002208CD002108CC00A8
:1000C8002008CB008A11AA248A11831203134A0834
:1000D80083160313C60083120313490883160313F8
:1000E800C50083120313480883160313C400831240
:1000F8000313470883160313C30046088312031328
:10010800CA0083160313450883120313C900831614
:100118000313440883120313C80083160313430808
:1001280083120313C7004030CE00A030CD0000304A
:10013800CC000030CB008A1544218A1183120313A6
:100148004A0883160313A30083120313490883166E
:100158000313A20083120313480883160313A10094
:1001680083120313470883160313A0004030A70027
:10017800A030A6000030A5000030A4008A159D25F7
:100188008A11831603132308CE002208CD00210804
:10019800CC002008CB00BF3083120313B600803098
:1001A800B5000030B4000030B300831603134E08C6
:1001B80083120313BA00831603134D088312031323
:1001C800B900831603134C0883120313B80083166F
:1001D80003134B0883120313B7008A1122228A11D2
:1001E80083120313360883160313A3008312031321
:1001F800350883160313A2008312031334088316E9
:100208000313A10083120313330883160313A000FA
:100218003F30A7008030A6000030A5000030A400C1
:100228008A159D258A11831603132308CA002208FC
:10023800C9002108C8002008C7004A088312031310
:10024800F40083160313490883120313F30083167B
:100258000313480883120313F20083160313470895
:1002680083120313F1008A159F248A118312031342
:10027800740883160313A7008312031373088316E5
:100288000313A60083120313720883160313A50031
:1002980083120313710883160313A4004530A300C7
:1002A8005330A2004030A1000030A0008A159D25DF
:1002B8008A11831603132308D2002208D1002108CB
:1002C800D0002008CF003F30A7008030A6000030C3
:1002D800A5000030A400520883120313BA00831645
:1002E8000313510883120313B9008316031350082C
:1002F80083120313B800831603134F0883120313E2
:10030800B7003B30B6005B30B500CF30B4000F30DB
:10031800B3008A1122228A11831203133608831626
:100328000313A30083120313350883160313A200D3
:1003380083120313340883160313A10083120313D3
:10034800330883160313A0008A159D258A11831686
:1003580003132308D6002208D5002108D40020085A
:10036800D300560883120313BA00831603135508E3
:1003780083120313B900831603135408831203135B
:10038800B80083160313530883120313B700C3304E
:10039800B6008830B5009330B4003330B3008A110A
:1003A80022228A11831203133608CE003508CD00A5
:1003B8003408CC003308CB004030CA000030C900F4
:1003C8000030C8000030C7008A11AA248A1183129D
:1003D80003134A0883160313B8008312031349084A
:1003E80083160313B70083120313480883160313F5
:1003F800B60083120313470883160313B5008A1542
:1004080039228A11831603133508C0004008D90021
:1004180059088A151D218A11033083160313C20057
:100428008A30C1005530C000C00B182AC10B182AE9
:10043800C20B182A00002D288A11002883120313E2
:1004480036088039BB003B08C3003608BB003B07B1
:10045800BC003C08C500B51F322A332A342A45148B
:1004680045080319382A392A492A450A031D3D2A0D
:100478003E2A462A0030B6000030B5000030B400ED
:100488000030B300B517B601512A0030B60000306D
:10049800B5000030B4000030B3003A088039BB0022
:1004A8003B08C4004408430603195B2A5C2A5D2AFA
:1004B80043173A08BB003B07BC003C08C400B91FFF
:1004C800662A672A682A4414440803196C2A6D2A84
:1004D8007D2A440A031D712A722A7A2A0030BA003A
:1004E8000030B9000030B8000030B700B917BA01C1
:1004F800852A0030BA000030B9000030B80000305A
:10050800B7004508440203188A2A8B2ACF2A431FBA
:100518008E2A8F2A932A8030BB003B08C3064508E1
:10052800BB003B08C6004408BB003B08C5004608A2
:10053800BB003B08C4003308BB003B08C6003708B3
:10054800BB003B08B3004608BB003B08B7003408B3
:10055800BB003B08C6003808BB003B08B40046088F
:10056800BB003B08B8003508BB003B08C60039088B
:10057800BB003B08B5004608BB003B08B90036087D
:10058800BB003B08C6003A08BB003B08B60046085B
:10059800BB003B08BA00C6014408BB00BC013C08CC
:1005A800BE0045083B02BD00031CBE033E08803A5E
:1005B800FF0080307F02031DE32A1A303D02031C2E
:1005C800E62AE72A242B8312031336083504340459
:1005D8003304031DF02AF22A0130F32A0030BB004D
:1005E8003B08C6000030B6000030B5000030B4004B
:1005F8000030B3004408BB003B08C5002C2B461C48
:10060800062B072B102B4608BB0003103B0C0138A8
:10061800BC003C08C600122B0310C60C331C152B5B
:10062800162B172BC6170130BB00360DB60CB50CB0
:10063800B40CB30CBB0B192B0130BB003B08C5072E
:100648008312031344084502031C2B2B2C2B032B6A
:10065800431B2F2B302B7B2B4508031D342B352BAD
:100668003E2B0030B6000030B5000030B40000303A
:10067800B300A92C3708B307380803110318013E43
:100688000319472BB407390803110318013E03194E
:100698004E2BB5073A0803110318013E0319552BD1
:1006A800B607361C582B592B2F2C461C5C2B5D2B60
:1006B800662B4608BB0003103B0C0138BC003C0805
:1006C800C600682B0310C60C331C6B2B6C2B6D2BD0
:1006D800C6170130BB00360DB60CB50CB40CB30C04
:1006E800BB0B6F2B0130BB003B08C5072F2C36080E
:1006F800803AFF003A08803A7F02031D8D2B3908A3
:100708003502031D8D2B38083402031D8D2B370845
:1007180033020318902B912BE92BFF30BB00FF30DD
:10072800BC00FF30BD00FF30BE003708BF003808EE
:10073800C0003908C1003A08C2003308BF023408B3
:10074800031C340FA82BA92BC0023508031C350F36
:10075800AE2BAF2BC1023608031C360FB42BB52BBA
:10076800C2023F08BB0740080318400FBC2BBD2B33
:10077800BC0741080318410FC22BC32BBD07420811
:100788000318420ABE073E08B6003D08B5003C08FB
:10079800B4003B08B3008030BB003B08C306C60961
:1007A800C60A4608031DD92BDA2BF72B0130B307ED
:1007B800003003180130B407003003180130B507C2
:1007C800003003180130B607F72B3708B302380892
:1007D800031C380FB4023908031C390FB5023A0854
:1007E800031C3A0FB6023608350434043304031DDB
:1007F800FE2BFF2B2B2C4608031D032C042C2B2C23
:100808000030B6000030B5000030B4000030B3004E
:10081800A92C0130BB000310B30DB40DB50DB60DF6
:10082800BB0B0F2CC61F192C1A2C1B2C3314461C5F
:100838001E2C1F2C222C0314C60D242C0310C60DAD
:1008480045080319282C292C2B2C0130C502B51F6B
:100858002E2C2F2C0D2CC401C61F332C342C422CCB
:1008680046087F390319392C3A2C3D2CC401C40A97
:10087800422C331C402C412C422C3A2C440803199E
:10088800462C472C7B2C0130B3070030031801306D
:10089800B407003003180130B507003003180130E1
:1008A800B607361C582C592C7B2C3308BB0034084F
:1008B800BC003508BD003608BE000130BF003E0D43
:1008C800BE0CBD0CBC0CBB0CBF0B632C3E08B600A9
:1008D8003D08B5003C08B4003B08B300450A0319BD
:1008E800762C772C7B2C0130BB003B08C507450ACA
:1008F80003197F2C802C852C4508031D842C852CFE
:10090800932C0030B6000030B5000030B400003041
:10091800B3004508031D912C922C932CC301451C50
:10092800962C972C992CB5179D2C7F30BB003B0833
:10093800B5054508BB0003103B0CBC003C08B600DD
:10094800C31FA72CA82CA92CB617080083120313C1
:100958004A088039CF004F08D4004A08CF004F0713
:10096800D0005008DA00C91FBA2CBB2CBC2C5A1472
:100978005A080319C02CC12CD02C5A0A031DC52CA7
:10098800C62CCE2C0030CA000030C9000030C80088
:100998000030C700C917D82C0030CA000030C90081
:1009A8000030C8000030C7004E088039CF004F081B
:1009B800D4064E08CF004F07D0005008D900CD1FED
:1009C800E62CE72CE82C591459080319EC2CED2CCB
:1009D800FC2C590A031DF12CF22CFA2C0030CE0005
:1009E8000030CD000030CC000030CB00CD17042DF6
:1009F8000030CE000030CD000030CC000030CB00FD
:100A080059080319082D092D0E2D5A08031D0D2DFF
:100A18000E2D172D0030CA000030C9000030C80064
:100A28000030C700F82F4708CF004F08A0004D0836
:100A38008A1566218A11831203132108E000200811
:100A4800DF005F08CF00D001D101D2015208D800E1
:100A58005108D7005008D6004F08D5006008CF00CD
:100A6800D001D101D2015208DE005108DD00500842
:100A7800DC004F08DB004808CF004F08A0004C08F6
:100A88008A1566218A11831203132108E0002008C1
:100A9800DF005F08CF00D001D101D2014F08D50790
:100AA800500803110318013E03195B2DD60751089E
:100AB80003110318013E0319622DD70752080311C9
:100AC8000318013E0319692DD8076008CF00D0012B
:100AD800D101D2014F08DB07500803110318013E6A
:100AE8000319772DDC07510803110318013E031978
:100AF8007E2DDD07520803110318013E0319852DC9
:100B0800DE074908CF004F08A0004B088A15662168
:100B18008A11831203132108E0002008DF005F0810
:100B2800CF00D001D101D2014F08D50750080311D9
:100B38000318013E0319A12DD60751080311031804
:100B4800013E0319A82DD707520803110318013EC7
:100B58000319AF2DD8076008CF00D001D101D20109
:100B68004F08DB07500803110318013E0319BD2D78
:100B7800DC07510803110318013E0319C42DDD07D2
:100B8800520803110318013E0319CB2DDE07083064
:100B9800CF000310D50DD60DD70DD80DCF0BCD2D09
:100BA8004808CF004F08A0004B088A1566218A1113
:100BB800831203132108E0002008DF005F08CF003C
:100BC8006008D000D101D2014F08D50750080311A1
:100BD8000318013E0319F12DD60751080311031814
:100BE800013E0319F82DD707520803110318013ED7
:100BF8000319FF2DD8074708CF004F08A0004C085D
:100C08008A1566218A11831203132108E00020083F
:100C1800DF005F08CF006008D000D101D2014F0883
:100C2800D507500803110318013E03191C2ED607D7
:100C3800510803110318013E0319232ED707520840
:100C480003110318013E03192A2ED8070830CF00D4
:100C58000310D50DD60DD70DD80DCF0B2C2E470868
:100C6800CF004F08A0004B088A1566218A1183120D
:100C780003132108E0002008DF005F08CF006008A8
:100C8800D000D101D2014F08D5075008031103182D
:100C9800013E0319502ED607510803110318013ECF
:100CA8000319572ED707520803110318013E0319D9
:100CB8005E2ED8074808CF004F08A0004D088A15B7
:100CC80066218A11831203132108E0002008DF003F
:100CD8005F08CF006008D000D101D2014F08DB07C0
:100CE800500803110318013E03197B2EDC07510835
:100CF80003110318013E0319822EDD075208031160
:100D08000318013E0319892EDE074908CF004F0852
:100D1800A0004C088A1566218A1183120313210842
:100D2800E0002008DF005F08CF006008D000D10194
:100D3800D2014F08DB07500803110318013E0319BD
:100D4800A62EDC07510803110318013E0319AD2E26
:100D5800DD07520803110318013E0319B42EDE07FC
:100D68004908CF004F08A0004D088A1566218A114E
:100D7800831203132108E0002008DF005F08CF007A
:100D88006008D000D101D20108300310CF0DD00D7A
:100D9800D10DD20DFF3E031DC92E4F08DB075008A9
:100DA80003110318013E0319DA2EDC075108031159
:100DB8000318013E0319E12EDD0752080311031839
:100DC800013E0319E82EDE075508CF005608D0006B
:100DD8005708D1005808D20018300310D20CD10C93
:100DE800D00CCF0CFF3E031DF12E4F08DB07500837
:100DF80003110318013E0319022FDC0751080311E0
:100E08000318013E0319092FDD07520803110318BF
:100E1800013E0319102FDE070830CF000310D50D4F
:100E2800D60DD70DD80DCF0B122F5A085907CF0062
:100E3800D001D00D4F08823EDF0050080318013E54
:100E4800FF3EE000442F0130CF000310DB0DDC0D26
:100E5800DD0DDE0DCF0B292FD81F332F342F352F63
:100E68005B140130CF000310D50DD60DD70DD80D6A
:100E7800CF0B372FFF30DF070318E00AFF30E007FA
:100E8800DD1F472F482F272FD901D81F4C2F4D2F53
:100E9800692FFF305505CF00FF305605D000FF30D1
:100EA8005705D1007F305805D2005208510450042C
:100EB8004F040319602F612F642FD901D90A692FB4
:100EC8005B1C672F682F692F612F590803196D2F35
:100ED8006E2F9F2F0130DB07003003180130DC072D
:100EE800003003180130DD07003003180130DE0739
:100EF8005E1C7F2F802F9F2F5B08CF005C08D000DF
:100F08005D08D1005E08D2000130D300520DD20C2A
:100F1800D10CD00CCF0CD30B8A2F5208DE0051080D
:100F2800DD005008DC004F08DB000130DF07031844
:100F3800E00A0030E0076008803AFF0080307F0256
:100F4800031DA82FFF305F02031CAB2FAC2FB72F58
:100F58007F3083120313DE008030DD000030DC00B8
:100F68000030DB00EC2F831203136008803AFF0087
:100F780080307F02031DC22F01305F020318C52F86
:100F8800C62FD22F003083120313DE000030DD009D
:100F98000030DC000030DB00D401EC2F8312031397
:100FA8005F08CF004F08DA00FF30DB05FF30DC05B3
:100FB8007F30DD050030DE055A1CE32FE42FE52FD6
:100FC800DD175A08CF0003104F0CD0005008DE0080
:100FD8005408CF004F08DE045E08CA005D08C90047
:100FE8005C08C8005B08C700080083160313DA0111
:100FF800DB0183018A11272808308A000408840A43
:10100800820700340034003400340034C434FF3420
:101018007F343F348034EF34FF34BE349034E134CD
:10102800A9343E34EC3482347634BE348234AD3460
:101038002B343E340E343C34C334BD348734D1347D
:0C10480013343D3441347834D334BB34CD
:10121E00831603139F171F08F03904389F001F13FE
:10122E00831203139F171F131F1408008312031337
:10123E00A1002108930083160313141C27292829C3
:10124E002229831203131308A0002008A2002208EB
:10125E00080083120313851640308316031387008C
:10126E00831203139412403083160313940012302A
:10127E008312031394009416080080308312031314
:10128E00CA064E08B6004D08B5004C08B4004B080F
:10129E00B3004A08BA004908B9004808B800470820
:1012AE00B7008A1122228A15831203133608CA0048
:1012BE003508C9003408C8003308C7000800831277
:1012CE000313A800A401A5012008A200A30122086F
:1012DE00A6002308A700281C752976297C29260834
:1012EE00A4070318A50A2708A50701300310A60DA9
:1012FE00A70DFF3E031D7D290310A80C2808031D12
:10130E0089298A2972292508A1002408A00008002D
:10131E000030831203132005A80000302105A90018
:10132E0080302205AA007F302305AB002B082A044B
:10133E0029042804031DA429A529AD290030A300E2
:10134E000030A2000030A1000030A00000302405C3
:10135E00A80000302505A90080302605AA007F30A0
:10136E002705AB002B082A0429042804031DC029D5
:10137E00C129C9290030A7000030A6000030A50001
:10138E000030A40027082306031DD72926082206AD
:10139E00031DD72925082106031DD7292408200659
:1013AE000319DA29DB29DD290310DE2903140800CD
:1013BE00831203132F08A3002E08A2002D08A100EC
:1013CE002C08A0000030A7000030A6000030A500B9
:1013DE000030A4008A158F218A15031CF729F829DD
:1013EE00092A831203133008840083138001840AB0
:1013FE0080010030AF000030AE000030AD00003094
:10140E00AC00382A831203132F087F39B100B201C2
:10141E000310B10DB20D3008840031088313800023
:10142E00840A320880002E0D2E0D0139B100B20152
:10143E003008840031088004840A320880043008A1
:10144E00840082308007840F00080318000AFF0012
:10145E00FF307F07800084032F0880393F38AF00AC
:10146E00AE130800031083160313370D380DB900A1
:10147E003908BF003F08031D452A462A4F2A00306F
:10148E00B8000030B7000030B6000030B500B42A06
:10149E003508B9003608BA003708BB003808BC005A
:1014AE001F300310BC0CBB0CBA0CB90CFF3E031D55
:1014BE00582A3908BD003D08BE00B717FF30B505E4
:1014CE00FF30B605FF30B7050030B8059630BF02C5
:1014DE00BF1F722A732A8D2A3F08803A973E03183F
:1014EE00792A7A2A7B2A462A01300310B80CB70CC7
:1014FE00B60CB50CFF3E031D7C2A0130B90039082D
:10150E00BF07031D8B2A8C2A7B2AA42A20303F0278
:10151E00031C922A932A9F2A462A0130B9000310EF
:10152E00B50DB60DB70DB80DB90B962A0130BF0229
:10153E003F08031DA32AA42A942A3E080319A82AA9
:10154E00A92AB42AB509B609B709B809B50A031903
:10155E00B60A0319B70A0319B80A0800831203134F
:10156E006608E80001300310E80DFF3E031DBA2A9D
:10157E000310680D650784008A1500208A15E9009E
:10158E008A1500208A15EA008A1500208A15EB00BC
:10159E008A1500208A15EC006C08F0006B08EF002D
:1015AE006A08EE006908ED00302BFF30E6070318DD
:1015BE00E70AFF30E7076608E80001300310E80D80
:1015CE00FF3E031DE52A0310680D650784008A158A
:1015DE0000208A15E9008A1500208A15EA008A156E
:1015EE0000208A15EB008A1500208A15EC006C0885
:1015FE00B6006B08B5006A08B4006908B30070083D
:10160E00CA006F08C9006E08C8006D08C7006408DC
:10161E00CE006308CD006208CC006108CB008A11B1
:10162E00AA248A15831203134A08BA004908B9007E
:10163E004808B8004708B7008A1122228A1583127B
:10164E0003133608F0003508EF003408EE003308B7
:10165E00ED0066086704031D352B362BDC2A700857
:10166E00E4006F08E3006E08E2006D08E100080078
:10167E000030831203132005A80000302105A900B5
:10168E0080302205AA007F302305AB002B082A04E8
:10169E0029042804031D542B552B5D2B0030A30069
:1016AE000030A2000030A1000030A0000030240560
:1016BE00A80000302505A90080302605AA007F303D
:1016CE002705AB002B082A0429042804031D702BC0
:1016DE00712B792B0030A7000030A6000030A5003A
:1016EE000030A400A31F7C2B7D2BA12B0030A80063
:1016FE000030A9000030AA008030AB002008A802FC
:10170E002108031C210F8C2B8D2BA9022208031CF0
:10171E00220F922B932BAA022308031C230F982B24
:10172E00992BAB022B08A3002A08A2002908A100BE
:10173E002808A000A71FA42BA52BC92B0030A8009A
:10174E000030A9000030AA008030AB002408A802A7
:10175E002508031C250FB42BB52BA9022608031C44
:10176E00260FBA2BBB2BAA022708031C270FC02B50
:10177E00C12BAB022B08A7002A08A6002908A5003A
:10178E002808A4008030A3068030A706270823026D
:10179E00031DDB2B26082202031DDB2B250821024D
:1017AE00031DDB2B240820020318DE2BDF2BE12B7D
:1017BE000310E22B0314080083120313A800280859
:1017CE000319EA2BEB2BFF2BA31FEE2BEF2BFF2B7B
:1017DE002009AA002109AB002209AC002309AD00A3
:1017EE00AA0A0319AB0A0319AC0A0319AD0A072C8E
:1017FE002308AD002208AC002108AB002008AA0087
:10180E002308220421042004031D0E2C0F2C182C57
:10181E000030A3000030A2000030A1000030A00074
:10182E009E2C9630A4002408A9002A2C0130A40076
:10183E002408A90701300310AD0CAC0CAB0CAA0C9C
:10184E00FF3E031D222CFE302D05031D2F2C302CA8
:10185E001D2C4C2C0130A4002408A9070130AA0726
:10186E00003003180130AB07003003180130AC070D
:10187E00003003180130AD0701300310AD0CAC0C75
:10188E00AB0CAA0CFF3E031D442CFF302D05031D8F
:10189E00512C522C312C5E2C0130A9020130A400A7
:1018AE000310AA0DAB0DAC0DAD0DA40B572CAC1B3C
:1018BE00612C622C682C023029020318672C682CCC
:1018CE00532C29186B2C6C2C742CFF30AA05FF306E
:1018DE00AB057F30AC05FF30AD050310A90C290810
:1018EE00A400A501A601A70118300310A40DA50D93
:1018FE00A60DA70DFF3E031D7C2C2408AA04250867
:10190E00AB042608AC042708AD0428080319902C54
:10191E00912C962CA31F942C952C962CAD172D083C
:10192E00A3002C08A2002B08A1002A08A000080082
:10193E00831203137408A3007308A2007208A10097
:10194E007108A0000030A7000030A6000030A500EE
:10195E000030A4008A153F238A150318B72CB82C23
:10196E00C92C213083160313DA000030DB0000305F
:10197E0083120313F4000030F3000030F200003045
:10198E00F1009C2D831203137408A3007308A200A8
:10199E007208A1007108A0000030A7000030A60058
:1019AE000030A5000030A4008A158F218A15031C73
:1019BE00E12CE22CF32C223083160313DA000030D4
:1019CE00DB00003083120313F4000030F30000300C
:1019DE00F2000030F1009C2DBF3083120313B600CD
:1019EE008030B5000030B4000030B3004030CA0083
:1019FE000030C9000030C8000030C7007630F50056
:101A0E007508B0007408AF007308AE007208AD0020
:101A1E007108AC008A15DF218A15831203132F0873
:101A2E00CE002E08CD002D08CC002C08CB008A113C
:101A3E00AA248A15831203134A08BA004908B9006A
:101A4E004808B8004708B7008A1122228A15831267
:101A5E0003133608F4003508F3003408F200330897
:101A6E00F100FF30F6070318F70AFF30F707740886
:101A7E00E4007308E3007208E2007108E10001302F
:101A8E00F5007508E5000830E6000030E7008A151D
:101A9E00B5228A15831203136408F4006308F30059
:101AAE006208F2006108F1007408B6007308B50010
:101ABE007208B4007108B3003F30CA003130C9005B
:101ACE007230C8001830C7007608A0007708A10051
:101ADE000030A11BFF30A200A30001308A15E323C2
:101AEE008A15831203132308CE002208CD00210885
:101AFE00CC002008CB008A11AA248A158312031366
:101B0E004A08BA004908B9004808B8004708B700A3
:101B1E008A1122228A15831203133608F40035081F
:101B2E00F3003408F2003308F100080083160313A3
:101B3E002708803983120313F800780883160313DD
:101B4E00AC00270883120313F8007807F900790810
:101B5E0083160313B300A61FB52DB62DB72D331460
:101B6E0033080319BB2DBC2DCC2D330A031DC02DFC
:101B7E00C12DC92D0030A7000030A6000030A500F1
:101B8E000030A400A617A701D42D0030A700003006
:101B9E00A6000030A5000030A4002308803983126F
:101BAE000313F800780883160313AC062308831278
:101BBE000313F8007807F900790883160313B400AD
:101BCE00A21FEA2DEB2DEC2D341434080319F02D41
:101BDE00F12D012E340A031DF52DF62DFE2D0030AC
:101BEE00A3000030A2000030A1000030A000A21718
:101BFE00A301092E0030A3000030A2000030A10086
:101C0E000030A0002308220421042004031D102EFE
:101C1E00112E2E2E0030A7000030A6000030A50099
:101C2E000030A4008030A6047F30A7042C08831255
:101C3E000313F800780883160313A7042708A300DC
:101C4E002608A2002508A1002408A000FF2F3308B3
:101C5E00031D322E332E3C2E0030A3000030A20086
:101C6E000030A1000030A000FF2F330883120313B1
:101C7E00F800F9017908FB00831603133408831268
:101C8E0003137802FA00031CFB037A087F3E8316C7
:101C9E000313AD00831203137B080318013E003EAD
:101CAE0083160313AE002708AB002608AA002508EA
:101CBE00A9002408A8000030A7000030A6000030BC
:101CCE00A5000030A4000030B2000030B10000309A
:101CDE00B0000030AF00B401D62E34080319782EB0
:101CEE00792EAB2E013083120313F80003108316E6
:101CFE000313A80DA90DAA0DAB0D83120313F80B38
:101D0E007D2E0130F800031083160313A40DA50DCC
:101D1E00A60DA70D83120313F80B8A2E8316031339
:101D2E00B21F9A2E9B2E9C2E241401308312031365
:101D3E00F800031083160313AF0DB00DB10DB20DE5
:101D4E0083120313F80BA02E8316031323082B0202
:101D5E00031DBB2E22082A02031DBB2E21082902B9
:101D6E00031DBB2E20082802031CBE2EBF2ECE2E16
:101D7E0032172008A8022108031C210FA9022208ED
:101D8E00031C220FAA022308031C230FAB020130EF
:101D9E0083120313F800780883160313B4071A305E
:101DAE003402031CDB2EDC2E742E2B082A0429048D
:101DBE0028040319E32EE42E132F2F14132F0130B2
:101DCE0083120313F800031083160313A40DA50D3D
:101DDE00A60DA70D83120313F80BEA2E8316031319
:101DEE00B21FFA2EFB2EFC2E241401308312031385
:101DFE00F800031083160313AF0DB00DB10DB20D25
:101E0E0083120313F80B002FFF3083160313AD0755
:101E1E000318AE0AFF30AE07A61F162F172FE62E99
:101E2E00B401B21F1B2F1C2F4A2FFF302F05831218
:101E3E000313F800FF3083160313300583120313C8
:101E4E00F900FF3083160313310583120313FA00D2
:101E5E007F3083160313320583120313FB007B08B6
:101E6E007A047904780403193D2F3E2F432F8316ED
:101E7E000313B401B40A4A2F83160313241C482FEC
:101E8E00492F4A2F3E2F340803194E2F4F2F9C2FC8
:101E9E000130A407003003180130A50700300318E5
:101EAE000130A607003003180130A707271C602F4A
:101EBE00612F9C2F240883120313F800831603133B
:101ECE00250883120313F9008316031326088312C1
:101EDE000313FA0083160313270883120313FB0060
:101EEE000130FC007B0DFB0CFA0CF90CF80CFC0B12
:101EFE00792F7B0883160313A700831203137A0826
:101F0E0083160313A6008312031379088316031393
:101F1E00A50083120313780883160313A40001305F
:101F2E00AD070318AE0A0030AE072E08803AFF0048
:101F3E0080307F02031DA52FFF302D02031CA82F1A
:101F4E00A92FB72FFF3083160313AD000030AE005C
:101F5E000030A7000030A6000030A5000030A4001D
:101F6E00831603132E08803AFF0080307F02031D74
:101F7E00C22F01302D020318C52FC62FD32F831663
:101F8E000313AD01AE010030A7000030A6000030F3
:101F9E00A5000030A400AC01831603132D08831294
:101FAE000313F800780883160313B300331CE02FD5
:101FBE00E12FE32FA617EB2F7F3083120313F800C8
:101FCE00780883160313A605330883120313F8004B
:101FDE000310780CF900790883160313A7002C0858
:101FEE0083120313F800780883160313A704252E13
:021FFE000800D9
:08400000FF3FFF3FFF3FFF3FC0
:02400E00323F3F
:00000001FF
