:100000008A11FD2F00308A000408840A8207003418
:10001000013400340A34003464340034E8340334E6
:0A0020001034273425346434003412
:100C5C00831603139F171F08F03904389F001F13C6
:100C6C00831203139F131F171F14080083120313FF
:100C7C0085164030831603138700831203139412D6
:100C8C004030831603139400113083120313940025
:100C9C009416080083120313A3002308A200A20ECB
:100CAC00A20DA20D1F0822063F3922069F00073015
:100CBC0083120313A200A20B612E642E8312031362
:100CCC001F151F196A2E6B2E672E1E08A100831686
:100CDC0003131E0883120313A00008008A112E268A
:100CEC008A118A113C268A11831203138512003053
:100CFC008A1150268A11831203132108C800200878
:100D0C00C7000B30BB003B08AE004808B0004708DA
:100D1C00AF003D308A1123278A11823083120313CE
:100D2C00BC00DD30BB00BB0B992EBC0B992E000018
:100D3C007A2E8A1100288312031328082904031918
:100D4C00A82EA92ED82EAD01AD0AB72E0130031056
:100D5C00A80DA90DFF3E031DAD2E0130AC002C08D3
:100D6C00AD07A91FBA2EBB2EAC2E29082B02031DD2
:100D7C00C12E28082A02031CC42EC52ECB2E2808EF
:100D8C00AA022908031CAB03AB0201300310A90C07
:100D9C00A80CFF3E031DCC2E0130AD02031DD72E37
:100DAC00D82EBB2E2B08A9002A08A80008008312F5
:100DBC000313A501A601200821040319E62EE72E32
:100DCC001E2FA701A70AF52E01300310A00DA10DAF
:100DDC00FF3E031DEB2E0130A4002408A707A11F22
:100DEC00F82EF92EEA2E01300310A50DA60DFF3EAC
:100DFC00031DFA2E21082302031D062F20082202B0
:100E0C00031C092F0A2F112F2008A2022108031CF2
:100E1C00A303A302251401300310A10CA00CFF3E68
:100E2C00031D122F0130A702031D1D2F1E2FF92E9B
:100E3C002608A1002508A000080083120313B9009E
:100E4C002F30B1003108B400E82F25303A060319D1
:100E5C00302F312F3D2F3A08B1003908840031086A
:100E6C00831380000130B1003108B907E82FB501B8
:100E7C000130AE07FF302E0784008A1102208A1140
:100E8C00BA00B100B2013208003A03194E2FE82F14
:100E9C003108003A0319F82F643A0319592F0D3A07
:100EAC000319592FE82F3408840083130008B70066
:100EBC00840A0008B8000230B1003108B407B81F2A
:100ECC00682F692F722F0330B1003108B504B709B0
:100EDC00B809B70A0319B80ABA01BA0A3A08B10034
:100EEC003107013E84008A1102208A11B2008A1156
:100EFC0002208A11B30033083802031D872F3208F1
:100F0C00370203188A2F8B2F8C2F962F0130B100AC
:100F1C003108BA0705303A06031D952F962F742F0A
:100F2C003508033903199B2F9C2FA72F2D30B100A7
:100F3C00390884003108831380000130B100310876
:100F4C00B9073A08B1003108B600DF2F0A30A80003
:100F5C000030A9003608B1003107013E84008A1127
:100F6C0002208A11A0008A1102208A11A1003808DF
:100F7C00A3003708A2008A11DD268A1183120313FD
:100F8C002108AB002008AA008A11A1268A1183121D
:100F9C0003132808303EB2003208BA003A08B100F8
:100FAC00390884003108831380000130B100310806
:100FBC00B907FF30B1003108B607360A031DE72F19
:100FCC00E82FAC2F0130AE07FF302E0784008A11BA
:100FDC0002208A11B1003108BA003A08031DF72F1C
:100FEC00F82F2B2F3908840083138001080083010C
:040FFC008A11742EB4
:08400000FF3FFF3FFF3FFF3FC0
:02400E00313F40
:00000001FF
